:020000040800F2
:10000000D0260120E13B0008A9040008AB04000849
:10001000AF040008B3040008B704000800000000A3
:10002000000000000000000000000000F33B00089A
:10003000BB04000800000000EDD7010809770008A4
:10004000FB3B0008FB3B0008FB3B0008FB3B0008B8
:10005000FB3B0008FB3B0008FB3B0008FB3B0008A8
:10006000FB3B0008FB3B0008FB3B0008FB3B000898
:10007000FB3B0008FB3B0008FB3B0008FB3B000888
:10008000FB3B0008FB3B0008FB3B0008FB3B000878
:10009000BD040008FB3B0008FB3B0008FB3B0008DD
:1000A000FB3B0008FB3B0008FB3B0008FB3B000858
:1000B000832D0008F11500088D350008FB3B000872
:1000C000FB3B0008FB3B0008FB3B0008FB3B000838
:1000D000FB3B0008DD780008FB3B0008BB3700084D
:1000E000FB3B0008FB3B0008FB3B0008FB3B000818
:1000F000FB3B0008FB3B0008FB3B0008FB3B000808
:10010000FB3B0008FB3B0008FB3B0008FB3B0008F7
:10011000FB3B0008FB3B0008FB3B0008FB3B0008E7
:10012000FB3B0008FB3B0008FB3B0008FB3B0008D7
:10013000FB3B0008CF170008FB3B0008FB3B000817
:10014000FB3B0008FB3B0008FB3B0008FB3B0008B7
:10015000FB3B0008FB3B0008FB3B0008FB3B0008A7
:10016000FB3B0008FB3B0008FB3B0008FB3B000897
:10017000FB3B0008FB3B0008FB3B0008FB3B000887
:10018000FB3B0008FB3B000800F002F800F06DF8B4
:100190000AA090E8000C82448344AAF10107DA45E2
:1001A00001D100F062F8AFF2090EBAE80F0013F0C7
:1001B000010F18BFFB1A43F001031847440A060059
:1001C000640A06000A444FF0000C10F8013B13F0DB
:1001D000070408BF10F8014B1D1108BF10F8015BA0
:1001E000641E05D010F8016B641E01F8016BF9D193
:1001F00013F0080F1EBF10F8014BAD1C0C1B09D1EA
:100200006D1E58BF01F801CBFAD505E014F8016B5B
:1002100001F8016B6D1EF9D59142D6D370470000ED
:100220000023002400250026103A28BF78C1FBD8FF
:10023000520728BF30C148BF0B60704764291DF0CA
:100240009F8473291DF0FD86002070471FB51DF0A7
:1002500071FF1DF087FE0400002000211DF054FFF7
:10026000401C60601FBD10B510BD1DF021FF114680
:10027000FFF7ECFF00F0C3F81DF03FFF03B4FFF7FA
:10028000F2FF03BC07F0C6FA13E07448406980F03F
:100290002000724948614FF448730022114610460D
:1002A0001CF0AAFD4FF448730022114610461CF0C2
:1002B000A3FDEAE708E003F00DF84FF4FA7300221B
:1002C000114610461CF098FDF5E708E001F046F8ED
:1002D0004FF4FA730022114610461CF08DFDF5E72D
:1002E00007E000F058FF28230022114610461CF0BA
:1002F00083FDF6E708E000F03CFF4FF4487300226E
:10030000114610461CF078FDF5E700B585B00320D6
:1003100000214FF40072524BCDE90132CDE90310B8
:10032000082003464F4A00904F481CF042FA032031
:10033000002180224D4BCDE90132CDE903100A2086
:1003400003464B4A00904B481CF033FA032000212F
:100350004FF40072484BCDE90132CDE903100B2078
:100360000346464A009046481CF023FA0320002129
:100370004FF40072434BCDE90132CDE9031009205F
:100380000346414A009041481CF013FA0320002123
:100390004FF400723E4BCDE90132CDE903100C2041
:1003A00003463C4A00903C481CF003FA05B000BDEF
:1003B00070471AF043FDFFF7FBFFFFF7A6FF01F0C0
:1003C00047FC01F075F907F04DFB08F025FE1AF027
:1003D00035FD1DF0E3F9044607F05AFC20461DF0F8
:1003E000E1F90BE01D48406980F004001B494861B9
:1003F00000230122194618461CF0FEFCF2E700B566
:1004000085B0A82007F08CF94FF4A06003F008FC39
:100410004FF4E13007F00CFA01F0C8FA00201DF0AB
:1004200038FA01201DF035FA02201DF032FA1AF0D8
:10043000C7FB032000218022184BCDE90132CDE912
:10044000031002200346164A009016481CF0B1F92A
:100450001AF0DCFC002005B000BD000000100240D6
:10046000701A00206C220020F50200087022002083
:100470006C240020E1020008702400206C2C002075
:10048000CB020008702C00206C340020B50200085C
:10049000703400206C3C0020890200087018002095
:1004A0006C1A0020B3030008704700BFFEE700BFCE
:1004B000FEE700BFFEE700BFFEE7704710B51AF089
:1004C00099FB0C4A00210C4806F09FFE0948406841
:1004D000B0F5A04F07D10748007A042803D10020C7
:1004E0000649087002E00120044908701AF09DFBDB
:1004F00010BD0000CC04002000640040400000203B
:100500000CB50020019000907648006840F48030DF
:100510007449086000BF7348006800F40030009020
:100520000198401C0190009818B90198B0F5A04FAF
:10053000F1D16C48006800F4003010B10120009047
:1005400001E0002000900098012846D16548403025
:10055000006840F08050634940310860624800689C
:1005600040F44040604908605E48083000685D49DA
:10057000083108600846006840F4004008600846FA
:10058000006840F4A05008605848091F0860081F20
:10059000006840F08070091F086000BF5148006883
:1005A00000F000700028F9D040F205705049086052
:1005B0004C480830006820F003004A4908310860C0
:1005C0000846006840F00200086000BF4548083057
:1005D000006800F00C000828F8D10CBD10B54548A3
:1005E000006840F47000434908603E48006840F0ED
:1005F00001003C49086000203A4908310860394848
:1006000000683D490840374908603C48091D0860BA
:10061000081F006820F48020091F0860002031496D
:100620000C310860FFF76CFF4FF0006031498039F2
:10063000086010BD70B500200022022300240221B2
:10064000284D08352D6805F00C0020B1042806D08F
:10065000082834D107E02A4D2A4E356033E02A4D70
:10066000284E35602FE01F4D2D1D2D68C5F3805499
:100670001C4D2D1D2D6805F03F0154B1224DB5FBD9
:10068000F1F5184E361D3668C6F3881605FB06F2DE
:1006900009E01B4DB5FBF1F5124E361D3668C6F369
:1006A000881605FB06F20F4D2D1D2D68C5F301457B
:1006B0006D1C6B00B2FBF3F5124E356003E0104D7C
:1006C000104E356000BF00BF064D08352D68C5F3DC
:1006D00003150E4E705D0B4D2D68C540094E3560FB
:1006E00070BD000000380240007000400854400710
:1006F000003C024088ED00E0FFFFF6FE10300024D1
:100700000024F4000000002000127A000400002001
:1007100070B505460C46EEB20021FA48417381736C
:100720000020F949087020E00120F84908702146AE
:10073000284601F02FFB0F230022114610461CF023
:100740005BFBF248007858B9EE48407BA04205D1E7
:10075000EC48807BB04201D1012070BD0020FCE755
:10076000E9480078401CE8490870E648407BA04210
:1007700003D1E448807BB04203D0E34800780328EB
:10078000D2D10020E9E710B5FF21E1480068FFF76A
:10079000BFFF30B1DF48007820F00100DD4908706C
:1007A00005E0DC48007840F00100DA490870FF21DC
:1007B000D9480068FFF7ACFF30B1D648007820F088
:1007C0000200D449087005E0D248007840F00200E9
:1007D000D0490870FF21D1480068FFF799FF30B178
:1007E000CC48007820F00400CA49087005E0C948E8
:1007F000007840F00400C7490870FF21C84800682D
:10080000FFF786FF30B1C348007820F00800C149E7
:10081000087005E0BF48007840F00800BD49087046
:1008200010BD2DE9F041044600250026062094FB6A
:10083000F0F0C5B2062094FBF0F100FB1140C6B207
:10084000701CC7B235B1012D19D0022D2CD0032D4B
:1008500054D13EE03946AE480068FFF759FF48B131
:10086000A848007BA749C97A40EA0120AD4921F890
:10087000140003E00020AB4921F814003FE03946A2
:10088000A5480068FFF744FF48B19E48007B9D499A
:10089000C97A40EA0120A34921F8140003E00020AE
:1008A000A04921F814002AE039469C480068FFF767
:1008B0002FFF48B19348007B9249C97A40EA012052
:1008C000984921F8140003E00020964921F814000B
:1008D00015E0394692480068FFF71AFF48B1894889
:1008E000007B8849C97A40EA01208E4921F814002A
:1008F00003E000208B4921F8140000E000BF00BF96
:10090000BDE8F0812DE9F0410446002500270620CE
:1009100094FBF0F0C5B2062094FBF0F100FB11400F
:10092000C7B2781CC0B240F0500635B1012D19D0C5
:10093000022D2CD0032D54D13EE03146744800687E
:10094000FFF7E6FE48B16F48007B6E49C97A40EA7E
:100950000120754921F8140003E00020724921F8B4
:1009600014003FE031466C480068FFF7D1FE48B103
:100970006448007B6349C97A40EA01206A4921F84A
:10098000140003E00020684921F814002AE03146F1
:1009900062480068FFF7BCFE48B15A48007B5949DD
:1009A000C97A40EA0120604921F8140003E00020E0
:1009B0005D4921F8140015E0314659480068FFF7F9
:1009C000A7FE48B14F48007B4E49C97A40EA012052
:1009D000554921F8140003E00020534921F8140080
:1009E00000E000BF00BFBDE8F0812DE9F041044602
:1009F00000250027062094FBF0F0C5B2062094FBEA
:100A0000F0F100FB1140C7B2781CC0B240F0A00664
:100A100035B1012D0AD0022D0ED0032D18D111E0D1
:100A200031463B480068FFF773FE12E031463A4812
:100A30000068FFF76DFE0CE0314638480068FFF7AC
:100A400067FE06E0314636480068FFF761FE00E0C9
:100A500000BF00BFBDE8F08110B52E48007800F05F
:100A6000010040B9002404E02046FFF7DAFE601CD4
:100A7000C4B2062CF8DB2748007800F0020040B929
:100A8000062404E02046FFF7CCFE601CC4B20C2C08
:100A9000F8DB2048007800F0040040B90C2404E0A2
:100AA0002046FFF7BEFE601CC4B2122CF8DB1948CA
:100AB000007800F0080040B9122404E02046FFF757
:100AC000B0FE601CC4B2182CF8DB10BD10B517487E
:100AD0000078A8B116480078012811D015480068A0
:100AE00015490968084340B9002404E02046FFF78F
:100AF00009FF601CC4B2182CF8DB00200B490870F9
:100B000010BD0000CC040020280000204000002080
:100B1000140000202B000020180000201C000020E2
:100B200020000020680300209803002029000020F6
:100B30002A000020001300200413002030B58DB0DF
:100B4000FE480078002845D0FD480078012841D0B3
:100B5000002407E0FB4850F8240001A921F8140004
:100B6000601CC4B2182CF5DB0025002417E001A896
:100B700030F81500F34951F82410884207D925466A
:100B8000F04850F8240001A921F8150005E001A85B
:100B900030F8150001A921F81500601CC4B2182C0A
:100BA000E5DB182002F097FE01A931F81510884204
:100BB0000DDA01A830F81500E3490968081A0A2877
:100BC00005D92846FFF711FF0820E04908830020D7
:100BD000DA4908700DB030BD10B5F121DC4800686D
:100BE000FFF796FD40B1DB48007BDA49C97A40EA5D
:100BF0000120D949086002E00020D7490860F221AD
:100C0000D3480068FFF784FD40B1D248007BD1494A
:100C1000C97A40EA0120D149086002E00020CF49AA
:100C2000086010BD2DE9F047002445E0062C0DDAE0
:100C3000CB4830F8140040F6C211484340F6FF712B
:100C400090FBF1F0BF4941F8240034E0062C0FDBA3
:100C50000C2C0DDAC24830F8140040F6C21148439B
:100C600040F6FF7190FBF1F0B64941F8240022E014
:100C70000C2C0FDB122C0DDAB94830F8140040F6BA
:100C8000C311484340F6FF7190FBF1F0AD4941F8C4
:100C9000240010E0122C0EDB182C0CDAB04830F8CF
:100CA000140040F6C111484340F6FF7190FBF1F08B
:100CB000A44941F82400641C182CB7DB0027002449
:100CC00004E0A04850F824000744641C182CF8DB0A
:100CD000A44807601820B7FBF0F09B490860142077
:100CE00002F0F9FD98490968884206D29E480068DA
:100CF00040F001009C49086005E09B48006820F036
:100D0000010099490860002408E08E4850F824004A
:100D1000964941F8240096490C55641C182CF4DBC4
:100D200000242DE02546914850F824001FFA80FA4F
:100D300026460BE08D4850F82600504505D935462B
:100D40008A4850F826001FFA80FA761C182EF1DB2C
:100D5000864850F824001FFA80F9844850F825008E
:100D6000824941F82400084640F82590804810F850
:100D70000480405D7E490855084600F80580641CE3
:100D8000182CCFDB794800687A49086078480078E9
:100D9000401C794908607548406878490860744883
:100DA0004078401C76490860704880687549086042
:100DB0006F488078401C744908606C48C06D734966
:100DC00008606B48C07D401C714908606748806DB1
:100DD000704908606648807D401C6F490860634820
:100DE000406D6E4908606248407D401C6C49086057
:100DF0006048006865490968401A6A4908601C2013
:100E000002F069FD67490968884206D256480068C1
:100E100040F002005449086005E05348006820F0A3
:100E200002005149086000241FE0142002F053FD25
:100E3000444951F82410884207D3182002F04BFD92
:100E4000404951F82410884207D90120A040564952
:100E5000096808435449086006E00120A04052494F
:100E60000968814350480160641C102CDDDB1024AC
:100E700024E0142002F02FFD324951F8241088425A
:100E800007D3182002F027FD2E4951F8241088427C
:100E90000AD9A4F11000012101FA00F043490968C0
:100EA00008434249086008E0A4F110000121814094
:100EB0003E48006888433D490860641C182CD8DB14
:100EC000BDE8F0872DE9F047002419E0384830F8F4
:100ED0001400C0EBC00000EB800000EB800040007D
:100EE00040F26B4190FBF1F0324941F82400084692
:100EF00050F82400304941F8240030490C55641C56
:100F0000182CE3DB00246EE025462B4850F8240023
:100F10001FFA80F926460BE0274850F8260048457E
:100F200005D93546244850F826001FFA80F9761C6A
:100F3000182EF1DB204850F8240041E02A00002060
:100F40002900002000100020481800200010024056
:100F500024000020CC040020041800200C180020DD
:100F6000680300200018002068180020C803002033
:100F70002804002014180020101800201C1800203D
:100F80001818002024180020201800202C180020F9
:100F90002818002034180020301800203C180020A9
:100FA000381800204C1800200013002004130020E3
:100FB000980300200014002040040020A00400201A
:100FC0001FFA80F8FE4850F82500FD4941F824003A
:100FD000084640F82580FB48075D405DF949085503
:100FE00008464755641C182C8EDBF5480068F64906
:100FF0000860F4480078401CF4490860102002F0B2
:101000006AFCF1490968884206D2F148006840F05C
:101010004000EF49086005E0ED48006820F040001E
:10102000EB490860002417E0102002F054FCE94965
:1010300051F82410884207D20120A040E6490968EF
:101040000843E549086006E00120A040E24909683C
:101050008143E1480160641C102CE5DB10241CE096
:10106000102002F038FCDB4951F8241088420AD2E3
:10107000A4F11000012101FA00F0D84909680843E1
:10108000D649086008E0A4F1100001218140D3484E
:1010900000688843D1490860641C182CE0DBBDE877
:1010A000F08710B5CE48006800F40040B0B12020B1
:1010B00002F011FCCA490968C1F30E01884206D248
:1010C000C348006840F00400C14908601CE0C04803
:1010D000006820F00400BE49086015E0242002F0FA
:1010E000FAFBBF490968C1F30E01884206D2B8482D
:1010F000006840F00800B649086005E0B4480068A0
:1011000020F00800B2490860B648006800F40040CA
:10111000B0B1282002F0DFFBB2490968C1F30E012B
:10112000884206D2AA48006840F01000A84908602A
:101130001EE0A748006820F01000A549086017E0ED
:101140002C2002F0C8FBC0F30E00A6490968C1F3C9
:101150000E01884206D29E48006840F020009C495B
:10116000086005E09A48006820F02000984908606F
:1011700010BD10B5FFF707FBFFF76EFCFFF752FD40
:10118000FFF7A4FCFFF79EFEFFF7D8FCFFF724FD56
:10119000FFF787FF10BD10B54FF48051924800F063
:1011A0003BFE10BB4FF40071904802F0ABFE90483C
:1011B000007898B18F480078062802D18D490870D0
:1011C0000CE08C480078042803D10120894908707C
:1011D00004E088480078401C864908700020844953
:1011E00008700121880703F083FB4FF480517E488B
:1011F00000F012FE022821D101027C4802F082FE9A
:101200007B48007898B106207A4908704FF49673AD
:101210000022114610461BF0EFFD77A201210020AD
:1012200000F0D9FE74A20221002000F0D4FE0020BC
:101230006F4908700121880703F05AFB4FF40051F1
:10124000694800F0E9FD18BB4FF40071674802F0EF
:1012500059FE67480078A0B172480078032803D18E
:101260000120704908700CE062480078062803D11C
:1012700004206049087004E06A480078401C69490D
:10128000087000205A4908700121880703F030FBDC
:101290004FF48041544800F0BFFD30BB4FF4007163
:1012A000524802F02FFE52480078B8B151480078F9
:1012B000062810D1002002F00EFB012801D10124E4
:1012C00004E0002002F007FB401EC4B221460020CB
:1012D00002F0F6FA02E00120534908700020444968
:1012E00008700121880703F003FB4FF400413E48DA
:1012F00000F092FD88BB4FF400713C4802F002FE02
:101300003B48007810B33B480078062810D10020F5
:1013100002F0E1FA0C2801D10C2404E0002002F0D4
:10132000DAFA401CC4B22146002002F0C9FA0DE0EE
:101330003E480078012806D100203C49087008206A
:101340003B49488302E001203849087000202849C1
:1013500008700121880703F0CBFA10BD10B586B0E4
:1013600001F071F823480078072828D2DFE800F060
:10137000270496E9F427F2002A480078401EC000AE
:10138000C01D2C4951F8200026490978491EC90082
:10139000891D284A52F82110224A1278521ED20082
:1013A000521D244B53F822201E4B1B785B1EDB0082
:1013B0001B1D204C54F82330CDE901323CE0E1E024
:1013C00040040020A0040020441800204018002001
:1013D00068180020001400200017002004170020C7
:1013E000041800200C1800200004024000180240DD
:1013F000700100202C000020202020202020202010
:1014000020202020202020202020202020202020DC
:1014100020202020202020202020202020202020CC
:10142000000000002D000020290000202A000020DC
:101430000010024000100020CDE90310534800784E
:10144000401EC000C01C214651F8200000904F48AB
:101450000078401EC000801C54F820304B480078B3
:10146000401EC000401C54F8202048480078401E10
:10147000C00054F820104548007800F004FE6423B2
:101480000022114610461BF0B7FC00F03EFF64231B
:101490000022114610461BF0AFFC74E03B48007878
:1014A000401EC000C01D3A4951F82020374800783E
:1014B000401EC000801D51F8200034490978491EA3
:1014C000C900491D324B53F82110304B1B785B1E6D
:1014D000DB001B1D2E4C54F82330CDE90131CDE942
:1014E00003022A480078401EC000C01C214651F863
:1014F0002000009025480078401EC000801C54F851
:10150000203022480078401EC000401C54F82020A3
:101510001E480078401EC00054F820101B48007878
:1015200000F053FE64230022114610461BF064FCB9
:1015300000F03AFF64230022114610461BF05CFCC9
:1015400021E001F091F8C8230022114610461BF05B
:1015500053FC18E00DE0FFE700F0E3FF0D480078D2
:1015600000F090FFC8230022114610461BF044FCF7
:1015700009E001F056FAC8230022114610461BF07C
:101580003BFC00E000BF00BF06B010BD2D000020F6
:10159000001400202B0000207FB504460D460121D9
:1015A000022002F01AFFADF804500020ADF806004A
:1015B0000294ADF80C0001A9124803F010F90122C1
:1015C0001146104803F0ACFD01210E4803F090F9DC
:1015D0001D208DF8000001208DF8010003208DF8FA
:1015E000020001208DF80300684602F01EFB7FBD5B
:1015F00010B50121034803F0AAFD0121014803F0C1
:10160000B7FD10BD0004004010B5B0B001214FF08F
:10161000606002F099FE04F0BFF804F040FE00BFE5
:1016200004F044FE0128FBD001A804F0C0F801201A
:101630000190002008904FF400700B9000200C9057
:101640000F90129014901590169021904FF000700A
:1016500022900011249000202690279004202990A9
:10166000C0052A9040122B9080012C9040122D90A2
:1016700040002F90002101A804F055F9C4B2012CBC
:1016800003D10121BB4804F028FE204630B010BD34
:1016900008B53D208DF8000000208DF801008DF880
:1016A000020001208DF80300684602F0BEFA08BD72
:1016B0001CB5002401214D2002F046FE01218803C3
:1016C00002F09CFE012002F0C5FF8620009003205E
:1016D0008DF8050002208DF8040000208DF806002A
:1016E0008DF807006946A44802F090FB0B22012107
:1016F000A14802F016FC0B2202219F4802F011FCC7
:101700000B2207219C4802F00CFC32200090694615
:101710009A4802F07BFB0B220121984802F001FC61
:101720000B220421954802F0FCFB0B220521934873
:1017300002F0F7FB4FF4D04000906946904802F069
:1017400065FB0B2211468E4802F0EBFB0B220D21AC
:101750008B4802F0E6FB0B220E21894802F0E1FBE8
:101760000820009003208DF8050001208DF804006A
:1017700000208DF806008DF807006946814802F0C8
:1017800045FB002080490860322006F01AF801204D
:101790007E49C1F88C02FFF77BFFFFF735FF044657
:1017A0000CB901201CBD0020FCE710B51D21002054
:1017B00004F086F8C0F30014204610BD10B51F21B8
:1017C000002004F07DF8C0F38204204610BD10B55F
:1017D00001E006F0CDF86E48006804F03CFD0028FA
:1017E000F7D1402004F090FD4FF4803004F08CFDE0
:1017F00010BD1EB500210022009201920292644A9F
:101800001268126802F0004282B100220092614A1E
:10181000526902F0800222B180225E4B5A6100229E
:101820009A609DE81C0080E81C001EBD584A1268A2
:10183000126802F40042B2B9554A1268126802F402
:10184000807282B1524A1268126802F4007252B178
:101850004F4A12681268C2F30D42111F4C4A1268B7
:101860009268019200E000210091494A12680292B8
:10187000474A1268D268464B1A609DE81C0080E80F
:101880001C0000BFD1E7014643480068006800F033
:10189000004008B100207047C1F30C003E4A1268B6
:1018A00050603D480068006840F040503A4A126875
:1018B000106039480068006840F00040364A1268FD
:1018C00010603448406900F0040020B10420314A1F
:1018D00050610020506030480068C0682E4A106097
:1018E0000120D8E72C4800688068704710B52B4865
:1018F000016800201CF083F82948016800201CF0D2
:101900007EF82848016800201CF079F82648016814
:1019100000201CF074F810BD10B5A02100201CF0B0
:101920007EF81E490860A02100201CF078F81C49B0
:10193000086041F6C45100201CF071F81949086094
:1019400041F6C45100201CF06AF81749086013489A
:10195000006840B11248006828B11248006810B110
:101960000846006818B9FFF7C1FF012010BD00202C
:10197000FCE70000400001000000024000080240B7
:1019800000180240000C02408C824142008041421B
:1019900098010020009002409401002030000020B7
:1019A00034000020380000203C00002000B599B031
:1019B0000121782002F0C8FC4FF633701790022006
:1019C0008DF8600003208DF8610000208DF8620022
:1019D00001208DF8630017A9994802F017FA4FF615
:1019E0008370179017A9974802F010FA4FF23F0042
:1019F000179017A9944802F009FA40F23F40179057
:101A000017A9924802F002FA0C2200218C4802F039
:101A100088FA0C2201218A4802F083FA0C22042160
:101A2000874802F07EFA0C220521854802F079FAF7
:101A30000C220821824802F074FA0C220921804805
:101A400002F06FFA0C220A217D4802F06AFA0C2299
:101A50000B217B4802F065FA0C221146784802F00F
:101A600060FA0C220D21764802F05BFA0C220E215E
:101A7000734802F056FA0C220F21714802F051FA15
:101A80000C2200216F4802F04CFA0C2201216D4813
:101A900002F047FA0C2207216A4802F042FA0C22AF
:101AA0000821684802F03DFA0C220921654802F03D
:101AB00038FA0C220A21634802F033FA0C220B2177
:101AC000604802F02EFA0C2211465E4802F029FA14
:101AD0000C220D215B4802F024FA0C220E215948F9
:101AE00002F01FFA0C220F21564802F01AFA0C22BB
:101AF0000021554802F015FA0C220121524802F04B
:101B000010FA0C220221504802F00BFA0C22032199
:101B10004D4802F006FA0C2204214B4802F001FA6B
:101B20000C220521484802F0FCF90C2211464648D7
:101B300002F0F7F90C220D21434802F0F2F90C22D1
:101B40000E21414802F0EDF90C220F213E4802F02F
:101B5000E8F90C2200213D4802F0E3F90C220121B2
:101B60003A4802F0DEF90C220221384802F0D9F995
:101B70000C220321354802F0D4F90C220421334809
:101B800002F0CFF90C220521304802F0CAF90C22EC
:101B90000A212E4802F0C5F9002001900290092088
:101BA0000390002004900590069007900420089070
:101BB000002009900A9010200B9000200C900D90AE
:101BC0000E900F9010904FF48050119000201290C2
:101BD0001390149001A81590169008A804F00FFD1A
:101BE0000121042004F096FD19B000BD10B506E0F7
:101BF00004784FF0D0435C54491C401C521E002A0C
:101C0000F6D110BD06E04FF0D0435B5C00F8013B1D
:101C1000491C521E002AF6D1704713B50446012212
:101C2000214601A8FFF7E2FF1CBD18B504460122BA
:101C300021466846FFF7E6FF9DF8000018BD00004A
:101C4000000C024000100240001402400018024044
:101C500010B501F047FF01F0B9F800F00AF900F003
:101C60009DF901F06CF800F08BF801F009F910BD56
:101C70001CB50121084602F067FB0121480602F06D
:101C8000ACFB4FF4C050009002208DF804000020FF
:101C90008DF8060003208DF8050001208DF807005F
:101CA0006946454802F0B2F809220B21424802F089
:101CB00038F909220C21404802F033F91CBD08B55F
:101CC0004FF4E06001F0ACFF14208DF8000000201C
:101CD0008DF8010001208DF802008DF803006846A0
:101CE00001F0A3FF08BD0EB5344805F007F86846BB
:101CF00005F028F900208DF8060001208DF8070076
:101D00008DF8080000208DF809008DF80A008DF884
:101D10000B008DF802008DF8030002208DF80400FE
:101D200001208DF805000E20ADF80000694623481B
:101D300004F0FDFF0EBD1FB500208DF80A008DF8E0
:101D40000B0001208DF80C000220ADF8000048F2D5
:101D50000400ADF802004FF6FF70ADF80400ADF8D6
:101D600006000020ADF8080001208DF80D0068463F
:101D700005F067F801220221104805F061FB1FBD44
:101D800010B5FFF775FFFFF79AFFFFF7ACFFFFF7FE
:101D9000D2FF10BD70B505460C46094845600420C9
:101DA0000749087200204872012088720846C472F0
:101DB000024805F035F970BD0000024000640040A3
:101DC000B80400201CB50121022002F0BDFA002059
:101DD0008DF8040003208DF8050001208DF8070020
:101DE000000300906946254802F010F84FF40050B7
:101DF00000906946214802F009F84FF480400090B5
:101E000069461E4802F002F84FF40040009069460F
:101E10001A4801F0FBFF1CBD70B505460E460024B4
:101E20003146284602F054F808BB0A230022114626
:101E300010461AF0E1FF3146284602F049F8A0B9F1
:101E40000BE00A230022114610461AF0D5FF601C51
:101E500084B2642C01DD022070BD3146284602F0B8
:101E600037F80028EDD00020F6E70120F4E7012044
:101E7000F2E710B5FFF7A6FF10BD00000004024016
:101E80001CB50121442002F05FFA01208DF8040006
:101E900000208DF8060002208DF8050001208DF845
:101EA0000700400200906946FE4801F0AFFF4FF482
:101EB000807000906946FB4801F0A8FF80200090E8
:101EC0006946F84801F0A2FF402000906946F548B5
:101ED00001F09CFF4FF47F5000906946F24801F0FA
:101EE00095FF4FF40071EF4802F00CF81CBD01B5EE
:101EF00002E00098401E009000980028F9D108BD2B
:101F000070B505460C464021E64801F0FDFF4DB195
:101F10004FF48071E34801F0F5FF8021E14801F0C2
:101F2000F3FF08E04FF48071DE4801F0EDFF8021FF
:101F3000DC4801F0E9FFDC481430006800F03F00A5
:101F4000D949143108600846006840EA84100860E6
:101F5000FF20FFF7CCFF4021D24801F0D3FF48F229
:101F6000FF40FFF7C4FF4021CE4801F0CDFF70BD18
:101F700010B54021CB4801F0C7FF01210020FFF739
:101F8000BFFF06210020FFF7BBFF0C210020FFF759
:101F9000B7FF38210020FFF7B3FF10BD10B5FFF7E2
:101FA0006FFFFFF7E5FF10BD10B501210020FFF71F
:101FB000A7FF10BD70B504460E46012E03D104F1F3
:101FC0008000C5B202E004F1C000C5B2294600207D
:101FD000FFF796FF70BD70B505460E4614463146B4
:101FE0002846FFF7E7FF04E021780120FFF788FF8C
:101FF000641C20780028F7D170BD2DE9F047054614
:102000000E4614464FF47A7094FBF0F0C7B24FF4CA
:102010007A7094FBF0F100FB114084B2642094FBD1
:10202000F0F000F0FF08642094FBF0F100FB114099
:1020300084B20A2094FBF0F000F0FF090A2094FB20
:10204000F0F100FB114000F0FF0A31462846FFF78F
:10205000B1FF07F13000C1B20120FFF751FF08F1D5
:102060003000C1B20120FFF74BFF09F13000C1B2CF
:102070000120FFF745FF0AF13000C1B20120FFF750
:102080003FFFBDE8F0872DE9F04F8DB005460E46C5
:102090001746984604960597CDF81880169807902D
:1020A000179808901898099019980A901A980B9008
:1020B00080210020FFF724FF012480E003A850F8CE
:1020C00024004FF47A7190FBF1F000F0FF0903A8AF
:1020D00050F8240090FBF1F201FB120003A941F833
:1020E000240003A850F82400642190FBF1F000F0D4
:1020F000FF0A03A850F8240090FBF1F201FB120044
:1021000003A941F8240003A850F824000A2190FBF9
:10211000F1F000F0FF0B03A850F8240090FBF1F25F
:1021200001FB1200C0B20C90681E082101FB0040A8
:102130000A2190FBF1F0029002983030C1B20120E8
:10214000FFF7DEFE681E082101FB00400A2190FB1C
:10215000F1F201FB1200019001983030C1B2012070
:10216000FFF7CEFE51A001780120FFF7C9FE09F16B
:102170003000C1B20120FFF7C3FE4DA0017801205D
:10218000FFF7BEFE0AF13000C1B20120FFF7B8FE32
:102190000BF13000C1B20120FFF7B2FE0C983030D5
:1021A000C1B20120FFF7ACFE42A001780120FFF789
:1021B000A7FE41A001780120FFF7A2FE641C092CB4
:1021C000FFF67CAF0DB0BDE8F08F2DE9F04F8BB07E
:1021D00005460E461746984603960497CDF8148098
:1021E00014980690159807901698089017980990DB
:1021F00018980A9080210020FFF782FE012100201C
:10220000FFF7D8FE01247BE002A850F824006421E7
:1022100090FBF1F000F0FF0902A850F8240090FBB9
:10222000F1F201FB120002A941F8240002A850F8C3
:1022300024000A2190FBF1F000F0FF0A02A850F8F8
:10224000240090FBF1F201FB120000F0FF0B681E6E
:10225000082101FB00400A2190FBF1F00190019858
:102260003030C1B20120FFF74BFE681E082101FB90
:1022700000400A2190FBF1F201FB1200009000984F
:102280003030C1B20120FFF73BFE08A001780120E9
:10229000FFF736FE09F13000C1B20120FFF730FE32
:1022A0000CE0000000180240000802402D00000071
:1022B0002E00000056000000200000000AF130004F
:1022C000C1B20120FFF71CFEAFF21C000178012013
:1022D000FFF716FE0BF13000C1B20120FFF710FE30
:1022E000FEA001780120FFF70BFEF4210120FFF78B
:1022F00007FEAFF23C0001780120FFF701FE641CED
:10230000092C81DB0BB0BDE8F08F10B5F4480078E4
:10231000012804D0022818D0032842D12BE0002441
:1023200010E00120A040EF490968084048B1EE4B99
:10233000621C13F82210ED4B13F82200ECA2FFF7F9
:102340004AFE641C082CECDB2CE0082410E0012081
:10235000A040E4490968084048B1E34B621C13F807
:102360002210E24B13F82200E1A2FFF734FE641CB6
:10237000102CECDB16E0002410E00120A040DF4927
:102380000968084048B1D84B621C13F82210D74B9B
:1023900013F82200D6A2FFF71EFE641C082CECDB0B
:1023A00000E000BF00BF10BD10B5CD480078012887
:1023B00004D0022818D0032842D12BE0002410E0DA
:1023C0000120A040CE490968084048B1C64B621CB4
:1023D00013F82210C54B13F82200C5A2FFF7FBFD2E
:1023E000641C082CECDB2CE0082410E00120A04049
:1023F000C3490968084048B1BB4B621C13F822105E
:10240000BA4B13F82200BAA2FFF7E5FD641C102CAA
:10241000ECDB16E0002410E00120A040B949096877
:10242000084048B1B04B621C13F82210AF4B13F8B0
:102430002200AFA2FFF7CFFD641C082CECDB00E00C
:1024400000BF00BF10BD10B51020AF494883202049
:102450004883C8230022114610461AF0CDFCA1483B
:102460000068A6490968084310B11020A6490883EE
:10247000A3480068A3490968084310B12020A24975
:10248000088310BD10B50446A0A202210020FFF76A
:10249000A2FDA1A202210D20FFF79DFDA0A2022115
:1024A0001620FFF798FDA0A202211F20FFF793FD41
:1024B00004F0010028B19EA202210820FFF78BFD45
:1024C00004E09DA202210820FFF785FD04F0020030
:1024D00028B197A202211120FFF77DFD04E096A20A
:1024E00002211120FFF777FD04F0040028B190A22B
:1024F00002211A20FFF76FFD04E08FA202211A20AB
:10250000FFF769FD04F0080028B189A20221232009
:10251000FFF761FD04E088A202212320FFF75BFDA5
:1025200010BD2DE9F04186A201210020FFF753FDE7
:102530008448006800F4004030B1AFF290220121DD
:102540000320FFF748FD04E07FA201210320FFF7ED
:1025500042FD7C480068C0F30E046420B4FBF0F038
:10256000C5B26420B4FBF0F100FB11440A20B4FBB7
:10257000F0F0C6B20A20B4FBF0F100FB114705F100
:102580003000C1B20120FFF7BBFC06F13000C1B240
:102590000120FFF7B5FCAFF2E82001780120FFF73A
:1025A000AFFC07F13000C1B20120FFF7A9FC67A220
:1025B00001210820FFF70FFD66A201210D20FFF782
:1025C0000AFD6548006800F4004030B1AFF22432E3
:1025D00001211020FFF7FFFC04E05BA20121102085
:1025E000FFF7F9FC5C480068C0F30E046420B4FBFC
:1025F000F0F0C5B26420B4FBF0F100FB11440A20F6
:10260000B4FBF0F0C6B20A20B4FBF0F100FB1147B6
:1026100005F13000C1B20120FFF772FC06F1300075
:10262000C1B20120FFF76CFCAFF27C3001780120D1
:10263000FFF766FC07F13000C1B20120FFF760FC34
:102640003CA201211520FFF7C6FC01211620FFF74F
:10265000B1FCDF210120FFF753FC40A2012117202C
:10266000FFF7B9FCBDE8F0812DE9F04740A2012158
:102670000020FFF7B0FC0025C2E03F4850F825409D
:102680004FF47A70B4FBF0F0C6B24FF47A70B4FB3A
:10269000F0F100FB11446420B4FBF0F0C7B26420F9
:1026A000B4FBF0F100FB11440A20B4FBF0F000F0A1
:1026B000FF080A20B4FBF0F100FB114905EBC5014E
:1026C000091DC8B20121FFF775FC2C48405D401C74
:1026D0000A2190FBF1F0303052E000006D00000064
:1026E0002D00002000130020A8000020440000203E
:1026F0002020202020202020202000000413002063
:10270000001700200417002000100240574F524BC2
:102710003A312D2D0000000020322D2D0000000048
:1027200020332D2D0000000020342D2D000000004E
:10273000204E4F4B20000000204F4B202000000077
:10274000493A2000041800202B00000020412020DE
:1027500020000000543A20000C18002043202020C4
:1027600020202020202020202020202020000000C9
:102770004D61783A00000000C803002028040020C2
:1027800000F0FF0A51460120FFF7BAFBFE48405D0A
:10279000401C0A2190FBF1F201FB1200303000F0E6
:1027A000FF0A51460120FFF7ABFBAFF20050017862
:1027B0000120FFF7A5FB06F13000C1B20120FFF7B1
:1027C0009FFBAFF2145001780120FFF799FB07F14E
:1027D0003000C1B20120FFF793FB08F13000C1B215
:1027E0000120FFF78DFB09F13000C1B20120FFF796
:1027F00087FBAFF2C00001780120FFF781FB6D1C61
:10280000032DFFF63AAFE1A201211F20FFF7E3FB02
:10281000E04804684FF47A70B4FBF0F0C6B24FF4AD
:102820007A70B4FBF0F100FB11446420B4FBF0F0CB
:10283000C7B26420B4FBF0F100FB11440A20B4FBE2
:10284000F0F000F0FF080A20B4FBF0F100FB1149A2
:1028500001212320FFF7AEFB06F13000C1B20120B9
:10286000FFF74EFBAFF2B85001780120FFF748FBAD
:1028700007F13000C1B20120FFF742FB08F1300040
:10288000C1B20120FFF73CFB09F13000C1B20120C9
:10289000FFF736FBC0A202210020FFF79CFB0025BA
:1028A00074E0C5F11700BE4951F820404FF47A702A
:1028B000B4FBF0F0C6B24FF47A70B4FBF0F100FB59
:1028C00011446420B4FBF0F0C7B26420B4FBF0F113
:1028D00000FB11440A20B4FBF0F000F0FF080A20CE
:1028E000B4FBF0F100FB114905EBC501091DC8B2AD
:1028F0000221FFF75FFBC5F11700A349085C401CEC
:102900000A2190FBF1F0303000F0FF0A514601201F
:10291000FFF7F6FAC5F117009B49085C401C0A2135
:1029200090FBF1F201FB1200303000F0FF0A51463B
:102930000120FFF7E5FAAFF28C6001780120FFF784
:10294000DFFA06F13000C1B20120FFF7D9FAAFF289
:10295000A06001780120FFF7D3FA07F13000C1B27F
:102960000120FFF7CDFA08F13000C1B20120FFF7D6
:10297000C7FA09F13000C1B20120FFF7C1FAAFF286
:102980004C2001780120FFF7BBFA6D1C032D88DB7A
:1029900084A202211F20FFF71EFB844804684FF425
:1029A0007A70B4FBF0F0C6B24FF47A70B4FBF0F179
:1029B00000FB11446420B4FBF0F0C7B26420B4FB08
:1029C000F0F100FB11440A20B4FBF0F000F0FF0826
:1029D0000A20B4FBF0F100FB114902212320FFF78C
:1029E000E9FA06F13000C1B20120FFF789FAAFF22F
:1029F000407001780120FFF783FA07F13000C1B27F
:102A00000120FFF77DFA08F13000C1B20120FFF785
:102A100077FA09F13000C1B20120FFF771FABDE881
:102A2000F0872DE9F04762A201210020FFF7D3FAD9
:102A300064A201211520FFF7CEFAAFF28C720121BA
:102A40001C20FFF7C8FAAFF2987201212020FFF78F
:102A5000C2FAAFF2A47201212420FFF7BCFA0121CF
:102A60001020FFF7A7FA002000F035FF044664208D
:102A7000B4FBF0F0C5B26420B4FBF0F100FB1144EC
:102A80000A20B4FBF0F0C6B20A20B4FBF0F100FB60
:102A9000114705F13000C1B20120FFF731FA06F10C
:102AA0003000C1B20120FFF72BFA07F13000C1B2AC
:102AB0000120FFF725FA01211920FFF77BFA43488F
:102AC000847A6420B4FBF0F0C5B26420B4FBF0F16A
:102AD00000FB11440A20B4FBF0F0C6B20A20B4FB9C
:102AE000F0F100FB114705F13000C1B20120FFF702
:102AF00007FA06F13000C1B20120FFF701FA07F131
:102B00003000C1B20120FFF7FBF901211D20FFF7C2
:102B100051FA2E48C47A6420B4FBF0F0C5B26420A8
:102B2000B4FBF0F100FB11440A20B4FBF0F0C6B294
:102B30000A20B4FBF0F100FB114705F13000C1B2EF
:102B40000120FFF7DDF906F13000C1B20120FFF7E7
:102B5000D7F907F13000C1B20120FFF7D1F9012107
:102B60002120FFF727FA1948047B6420B4FBF0F01A
:102B7000C5B26420B4FBF0F100FB11440A20B4FBA1
:102B8000F0F0C6B20A2023E0280400204176673A1C
:102B900000000000481800204D696E3A0000000057
:102BA000C80300205670703A000000004C18002046
:102BB0004D4F4442555320414444524553533A20CB
:102BC0000000000049503A2000000000700800207A
:102BD000B4FBF0F100FB114705F13000C1B2012058
:102BE000FFF78EF906F13000C1B20120FFF788F936
:102BF00007F13000C1B20120FFF782F90121252041
:102C0000FFF7D8F93E48447B6420B4FBF0F0C5B22E
:102C10006420B4FBF0F100FB11440A20B4FBF0F097
:102C2000C6B20A20B4FBF0F100FB114705F13000F9
:102C3000C1B20120FFF764F906F13000C1B20120F2
:102C4000FFF75EF907F13000C1B20120FFF758F934
:102C50002CA202210020FFF7BEF902211220FFF76B
:102C6000A9F9082000F037FE044642F21070B4FBC8
:102C7000F0F000F0FF0842F21070B4FBF0F100FB3E
:102C800011444FF47A70B4FBF0F000F0FF094FF4F8
:102C90007A70B4FBF0F100FB11446420B4FBF0F057
:102CA000C5B26420B4FBF0F100FB11440A20B4FB70
:102CB000F0F0C6B20A20B4FBF0F100FB114708F1B6
:102CC0003000C1B20120FFF71BF909F13000C1B299
:102CD0000120FFF715F905F13000C1B20120FFF71F
:102CE0000FF906F13000C1B20120FFF709F907F131
:102CF0003000C1B20120FFF703F9BDE8F087000002
:102D0000700800204D4F44425553204241554453D2
:102D1000524154453A20000008B54FF4A06000F03D
:102D20007FFF1C208DF8000001208DF801008DF838
:102D300002008DF80300684600F077FF08BD0EB56D
:102D40000121084601F049FB42F20F70019042F266
:102D5000CF00ADF800000020ADF80800ADF802008B
:102D600069464FF0804001F03AFD0122114690077C
:102D700002F0D6F9FFF7D0FF0121880701F0B8FD76
:102D80000EBD10B50121880702F0E1F9C8B101219B
:102D9000880702F0EDF90B480078401C09490870DB
:102DA0000846007878280CD100214FF0804001F0CF
:102DB0009FFD4FF40071044801F0A6F8002001497E
:102DC000087010BD70010020001802401CB50121E0
:102DD000102001F0B9FA0420009001208DF80400C1
:102DE00000208DF8060003208DF8050001208DF8E5
:102DF00007006946214801F009F8082000900120E9
:102E00008DF8040000208DF8060003208DF80500E1
:102E100001208DF807006946184800F0F7FF1020E0
:102E2000009001208DF8040000208DF8060003209A
:102E30008DF8050001208DF8070069460F4800F065
:102E4000E5FF2020009001208DF8040000208DF87F
:102E5000060003208DF8050001208DF80700694663
:102E6000064800F0D3FF0420044948830820488323
:102E700010204883202048831CBD00000010024021
:102E800010B500F020FC00F0E7FA10BD70B5044664
:102E90000D461646FE480078012824D10102FD485F
:102EA00001F030F80DE028466A1CD5B2315CFA48D2
:102EB00002F054FB00BF8021F74802F0FFFB00281E
:102EC000F9D02000A4F10101CCB2ECD100BF402127
:102ED000F14802F0F3FB0028F9D04FF48071ED487F
:102EE00001F012F817E0EA480078022813D10DE04B
:102EF00028466A1CD5B2315CE84802F02FFB00BFBF
:102F00008021E64802F0DAFB0028F9D02000A4F185
:102F10000101CCB2ECD170BD70B50446E048007838
:102F2000E0490870DE484078803048700846847078
:102F3000032100F02BFA0546DA49CD7028120871FA
:102F40000A4600210520FFF7A1FF70BD70B50724D8
:102F5000D3488078092875D1D148C078112871DC10
:102F6000CF484079CE49097940EA0120CE4908701E
:102F7000CB4880790978884209D1C948C078CA49C4
:102F800009780844122802DCC748007818B90220E2
:102F9000FFF7C2FF59E0C248C078402101EB800032
:102FA000C249086011E0BE4B621C9A5C1B5D42EA9C
:102FB0000321BE4A128890B200F082FCBB48006830
:102FC000001DBA490860A01CC4B2B5498879411EE9
:102FD000B34A91710028E6D100F07DFCB149087038
:102FE000AF4840784870AE4880788870AC48C07868
:102FF000C870AB4800790871A9484079487106212A
:10300000A84800F0C3F90546A6498D712812C87179
:103010000A4600210820FFF739FFA148C07802289E
:103020000CDC9F48C078A04909780844022805DDD7
:10303000082000F050FC064600F0CFFA9848C0780F
:1030400003E0FFE70220FFF767FF70BD70B50024C3
:103050009348807809282ED19148C07811282ADC1D
:103060008F4A52798E4B1B7942EA03218C4AD278DF
:10307000900000F025FC05E08948005D894908556D
:10308000601CC4B28A490878411E894A1170002820
:10309000F2D1844A00212046FFF7F8FE8048C0782C
:1030A000022805D1082000F016FC054600F095FA2C
:1030B0007B48C07802E00220FFF72EFF70BD70B59C
:1030C000032477488078092863D17548407974498A
:1030D000097940EA0120744908707148C07809787C
:1030E0000844122802DC7048007818B90220FFF763
:1030F00013FFEEE06A48C0786E4908700846007811
:1031000080006A490860664800786649087064482B
:1031100040784870644800784006000E88701AE0D5
:103120006249098888B200F0D6FB02122046611C71
:10313000CCB25C490A545D49098888B200F0CBFBE7
:10314000C2B22046611CCCB256490A5457480068A6
:10315000001D56490860544801780078401E524AC4
:1031600010700029DCD121464E4800F00FF90546C9
:103170002046611CCCB24B490D542A122046611CDA
:10318000CCB248490A540A4600212046FFF77EFE89
:103190009FE043488078092878DA4748017800782A
:1031A000401C454A10703E48405C44490870104637
:1031B00001780078401C10703948405C3D49087027
:1031C0003E48007801023B48007841EA80003C49D3
:1031D000084436490860104601780078401C107099
:1031E0002F48405C37490870104601780078401C31
:1031F00010702B48405C344908700846007831490B
:10320000097840EA012028490870254800782549B6
:103210000870234840784870234800784006000E24
:10322000887015E0214800680088020A2046611C69
:10323000CCB21C490A541D48006802782046611C23
:10324000CCB218490A5419480068001D1749086093
:10325000154801780078401E134A10700029E1D10A
:103260002146104800F092F805462046611CCCB279
:103270000C490D542A122046611CCCB209490A544B
:103280000A4600212046FFF701FE22E01EE0000072
:10329000750100200000024000100140004800407D
:1032A000E0040020A80500207E0100207801002015
:1032B000740100207D010020770100207C010020A6
:1032C000001000207F010020800100200220FFF775
:1032D00023FE70BD10B529480078012803D0274887
:1032E0000078022848D100202549087000F0F3FA40
:1032F00023490A780978491C214B19702149895CB6
:10330000884234D120480078801E81B21D4800F0E8
:103310003DF81D490978891E1A4A525C1A490978F4
:10332000491E184B595C42EA012188421CD11448BD
:1033300001780078401C124A10701846405C03283F
:1033400004D0062805D0162809D105E0FFF7B7FEFE
:1033500009E0FFF77BFE06E0FFF7F8FD03E0012040
:10336000FFF7DAFD00BF02E00320FFF7D5FD0020E4
:10337000054908700149087010BD00007501002062
:1033800077010020E00400207401002070B502469F
:103390000C46FF25FF2309E012F8010B80EA030128
:1033A0000648405C80EA05030548455C2000A4F11E
:1033B0000106B4B2F0D143EA052070BD3EE1010838
:1033C0003EE2010808B54FF4E06000F029FC1D2042
:1033D0008DF8000000208DF8010003208DF8020018
:1033E00001208DF80300684600F01FFC01216D48A4
:1033F00001F0BEFE002201216A4801F091FE08BDE5
:103400003EB5044600250121022000F0E6FF664893
:10341000006844F62061B0FBF1F0401E85B2601EEA
:103420000190ADF800500020ADF80800ADF80200A2
:1034300069465C4801F0D3F901215A4801F03AFA93
:103440000021584801F054FA3EBD10B52320FFF783
:10345000D7FFFFF7B7FF10BD10B5FFF7F6FF10BDA0
:1034600010B501214F4801F083FE012211464D485D
:1034700001F056FE00214B4801F0FAF901214948BC
:1034800001F036FA10BD10B50121464801F070FE7A
:1034900000220121434801F043FE0021414801F090
:1034A000E7F900213F4801F023FA10BD08B54FF4B9
:1034B000806000F0B5FB1E208DF8000000208DF824
:1034C000010004208DF8020001208DF803006846F9
:1034D00000F0ABFB0121354801F04AFE002201213A
:1034E000324801F01DFE08BD3EB50446002501210D
:1034F000042000F072FF2C48006844F62061B0FB05
:10350000F1F0401E85B2601E0190ADF80050002021
:10351000ADF80800ADF802006946244801F05FF9F3
:103520000121224801F0C6F90021204801F0E0F90C
:103530003EBD10B52320FFF7D7FFFFF7B7FF10BD43
:1035400010B50121194801F013FE01221146174858
:1035500001F0E6FD0021154801F08AF90121134828
:1035600001F0C6F910BD10B50121104801F000FEB0
:10357000002201210D4801F0D3FD00210B4801F08C
:1035800077F90021094801F0B3F910BD10B5012108
:10359000064801F0DCFD18B10121044801F0E8FD06
:1035A00010BD0000000400400000002000080040A2
:1035B00008B54FF4E06000F033FB25208DF80000E3
:1035C00000208DF8010002208DF8020001208DF806
:1035D0000300684600F029FB08BD1FB504460094AF
:1035E0000020ADF804004FF40050ADF806000020B4
:1035F000ADF80800ADF80C000C20ADF80A006946E3
:10360000A44801F0F8FE012240F22551A14802F041
:1036100030F8012240F224419E4802F02AF880212D
:103620009C4802F058F801219A4801F06CFF1FBD38
:103630001CB50121102000F0E1FE0121412000F025
:1036400083FE07220921944800F06BFC07220A211F
:10365000914800F066FC4FF48070009001208DF8D6
:10366000040003208DF8050000208DF806000120DD
:103670008DF807006946884800F0C8FB4FF4C06029
:10368000009002208DF8040003208DF80500002032
:103690008DF8060001208DF8070069467E4800F08D
:1036A000B5FB4FF480717C4800F02EFC1CBD10B5BA
:1036B000FFF7BEFF082000F00EF90446FFF78DFF6C
:1036C000FFF776FF10BD10B5FFF7F1FF10BD08B58D
:1036D0004FF4A06000F0A4FA27208DF8000000202D
:1036E0008DF8010001208DF802008DF80300684676
:1036F00000F09BFA08BD1FB5044600940020ADF809
:1037000004004FF40050ADF806000020ADF80800AA
:10371000ADF80C000C20ADF80A0069465D4801F0D8
:103720006AFE012240F225515C4801F0A2FF01220D
:1037300040F22441594801F09CFF2021574801F0F4
:10374000CAFF40F22551554802F009F801215348BB
:1037500001F0D9FE1FBD1CB50121880400F03DFE1B
:103760000121022000F0F0FD07220A214C4800F060
:10377000D8FB07220B214A4800F0D3FB4FF44060EE
:10378000009002208DF804008DF8050000208DF8CF
:10379000060001208DF807006946414800F036FB1D
:1037A0001CBD10B5FFF7D7FF082000F094F80446C1
:1037B000FFF7A1FFFFF78BFF10BD10B500BF394821
:1037C0000078002864D03848007801283CD140F2C5
:1037D0002551324801F088FF58B13048001D00885B
:1037E000C1B2324802780078401C304B1870304823
:1037F000815440F22441294801F076FF002847D047
:1038000026480488001D0488294800782949087042
:10381000274840788030487006208870032125486A
:10382000FFF7B4FD2349C87003212248FFF7AEFD1E
:103830000012204908710A4600210520FFF726FBE7
:1038400000201A49087023E040F22551134801F086
:103850004BFF58B11148001D0088C1B216480278CC
:103860000078401C144B18701448815440F22441D5
:103870000A4801F039FF58B108480488001D04883F
:10388000022009490870002006490870FFF7E8FD8A
:1038900010BD000000100140000002400048004040
:1038A0000004024076010020750100208101002003
:1038B000700600200607002074010020E0040020AC
:1038C00008B5002200928E4A0092009A02440092AB
:1038D000009A116008BD08B5014600200090884894
:1038E00000900098084400900098008808BD10B52A
:1038F0000121080700F071FD012003F054F90121B6
:10390000880400F021FD012003F060F900BF0820C9
:1039100003F0DDF90028FAD05020FFF7DCFF7949E9
:10392000097888425BD001210020FFF7C9FF0121FF
:103930000420FFF7C5FF4FF496410820FFF7C0FFB2
:1039400018210C20FFF7BCFF0F211020FFF7B8FF54
:1039500040F6FC011420FFF7B3FF4FF4E16118209B
:10396000FFF7AEFF4FF4E1611C20FFF7A9FF4FF412
:10397000FA712020FFF7A4FFC8212420FFF7A0FF41
:1039800048F2BC212820FFF79BFF4FF4C8712C2080
:10399000FFF796FF00213020FFF792FF002134202F
:1039A000FFF78EFF00213820FFF78AFF00213C201F
:1039B000FFF786FF00214020FFF782FF002144200F
:1039C000FFF77EFF00214820FFF77AFF00214C20FF
:1039D000FFF776FF4B4801785020FFF771FF10BDCD
:1039E0000020494908604949086049490860494937
:1039F00008604949086049490860494908604949DF
:103A000008604949086049490860494908604949CE
:103A100008604949086049490860494908604949BE
:103A200008604949086049490860494908604949AE
:103A3000086049490860494908604949086049499E
:103A4000086049490860494908604949086049498E
:103A500008607047002048490860484908604849A4
:103A60000860484908604849086048490860484972
:103A70000860484908604849086048490860484962
:103A80000860484908607047002004E00021464A69
:103A900042F82010401CC028F8DB70470020434942
:103AA0000860434908604349086043490860434946
:103AB0000860434908604349086043490860434936
:103AC00008604349086043490860434908607047FB
:103AD000002004E01221414A42F82010401CC02876
:103AE000F8DB704710B5FFF7F3FFFFF7D7FFFFF7DD
:103AF000CBFFFFF7AFFFFFF773FFFFF7F8FE10BD37
:103B0000004002408201002000180020041800201C
:103B1000081800200C18002010180020141800208D
:103B2000181800201C18002020180020241800203D
:103B3000281800202C1800203018002034180020ED
:103B4000381800203C18002040180020441800209D
:103B5000481800204C18002050180020541800204D
:103B6000581800205C1800206018002064180020FD
:103B7000681800206C18002000170020041700208F
:103B8000081700200C170020101700201417002021
:103B9000181700201C1700202017002024170020D1
:103BA000281700202C1700200014002000130020EC
:103BB00004130020081300200C1300201013002011
:103BC00014130020181300201C13002020130020C1
:103BD00024130020281300202C13002000100020A4
:103BE0000948804709480047FEE7FEE7FEE7FEE791
:103BF000FEE7FEE7FEE7FEE7FEE7FEE704480549CD
:103C0000054A064B70470000DD05000889010008E1
:103C1000D0200120D0260120D0220120D022012056
:103C200032490143324A1160704770B500210023C8
:103C30000F22C4781CB32E4C246804F4E064C4F54D
:103C4000E064C4F30721C1F10404E3B20A414478FB
:103C50009C40E1B28478144021430C07210E254C8E
:103C600005786155047804F01F050124AC400578FF
:103C70006D11AD0005F1E025C5F8004109E00478BB
:103C800004F01F050124AC401B4D0678761145F861
:103C9000264070BD194A0A400243154B1B1F1A608B
:103CA000704739B1124A121D12680243104B1B1D96
:103CB0001A6006E00E4A121D126882430C4B1B1D4F
:103CC0001A607047042808D14FF0E021096941F0DB
:103CD00004014FF0E022116107E04FF0E021096993
:103CE00021F004014FF0E022116170470000FA0555
:103CF0000CED00E000E400E080E100E080FFFF1F49
:103D000010B504469848844208D10121084600F0C5
:103D100086FB0021012000F082FB76E0934884427C
:103D200008D10121022000F07AFB0021022000F0DE
:103D300076FB6AE08E48844208D10121042000F01D
:103D40006EFB0021042000F06AFB5EE0894884429B
:103D500008D10121082000F062FB0021082000F0BA
:103D60005EFB52E08448844208D10121102000F01B
:103D700056FB0021102000F052FB46E07F488442B1
:103D800008D10121202000F04AFB0021202000F072
:103D900046FB3AE07A48844208D10121402000F0F5
:103DA0003EFB0021402000F03AFB2EE075488442A3
:103DB00008D10121802000F032FB0021802000F09A
:103DC0002EFB22E07048844208D10121801500F0CA
:103DD00026FB0021A01500F022FB16E06B48844270
:103DE00008D10121401500F01AFB0021601500F0F8
:103DF00016FB0AE06648844207D10121001500F055
:103E00000EFB0021201500F00AFB10BDF0B50A469C
:103E100000210023002400BF3DE0012505FA01F345
:103E2000156805EA03049C4234D105684F00032657
:103E3000BE40B543056015794E00B5400668354370
:103E400005601579012D02D01579022D16D18568EE
:103E50004F000326BE40B543856055794E00B540FE
:103E6000866835438560456801268E40B5434560C8
:103E7000456896798E40B6B235434560C5684F00B7
:103E80000326BE40B543C560D5794E00B540C6682F
:103E90003543C560491C1029BFD3F0BD4FF6FF71F3
:103EA00001600021017141718171C171704708B5D4
:103EB0004FF480320092009A0A430092009AC26145
:103EC000C161009AC261C2690092C269009208BDD4
:103ED0000246002013690B400BB1012000E00020D6
:103EE00070470146086980B2704702460020536956
:103EF0000B400BB1012000E00020704701464869EB
:103F000080B2704701837047418370470AB10183D3
:103F100000E0418370474161704742694A40426115
:103F20007047F0B5002300244D07ED0E02FA05F3AB
:103F3000CE1000F1200555F826504E07F70E0F263B
:103F4000BE40B543CF1000F1200646F82750CE10F2
:103F500000F1200555F8265045EA0304CE1000F183
:103F6000200545F82640F0BD000002400004024054
:103F700000080240000C0240001002400014024001
:103F800000180240001C02400020024000240240B1
:103F900000280240F948006840F00100F749086035
:103FA0000020F64908310860F4480068F4490840E8
:103FB000F2490860F348091D0860F348EF4984316D
:103FC0000860F0481038091D0860EC48006820F4CB
:103FD0008020EA4908600020E8490C310860E74980
:103FE0008C31086070470021E44A921C1170114620
:103FF0000870704710B501460022002300204A11C6
:10400000012A02D1DD4C236808E0022A03D1DB4CEF
:104010007034236802E0D94C7434236801F01F0225
:10402000012494401C400CB1012000E0002010BD90
:1040300038B5002000900024002500BF3120FFF794
:10404000D9FF05460098401C00900098B0F5A04F9D
:1040500001D0002DF2D03120FFF7CCFF08B10124B0
:1040600000E00024204638BD01460020C34A106805
:1040700020F0F80040EAC10010607047C3490860B2
:1040800070470021BD4A703211701170012802D0B2
:1040900004280AD104E00121B84A7032117005E009
:1040A0000521B64A7032117000E000BF00BF7047B2
:1040B000B7490860704770B5049C41EA8215012633
:1040C000C6EB530645EA0645054345EA0465AB4E93
:1040D000361D356070BDAD4908667047820142EA01
:1040E0000172A64B84331A607047A84988667047EE
:1040F00010B5830143EA016343EA02739F4C88349D
:10410000236010BDA14908677047A049C864704783
:1041100002460020994B0833186820F0EC6042EA10
:1041200001031843954B083318607047024600207E
:10413000924B0833186820F0784042EA0103184394
:104140008E4B083318607047014600208B4A0832B6
:10415000106820F00300084310607047874808305B
:10416000006800F00C00704701460020834A0832C6
:10417000106820F0F00008431060704701460020EE
:104180007E4A0832106820F4E050084310607047FF
:1041900001460020794A0832106820F4604040EA65
:1041A000C10010607047F0B50021002200240225F4
:1041B00000260223714F08373F6807F00C0121B138
:1041C000042905D0082937D105E0724F076036E091
:1041D000714F076033E0694F3F1D3F68C7F380565A
:1041E000664F3F1D3F6807F03F036EB16A4FB7FB54
:1041F000F3F7DFF888C10CF1040CDCF800C0CCF355
:10420000881C07FB0CF40CE0624FB7FBF3F7DFF8F8
:104210006CC10CF1040CDCF800C0CCF3881C07FB6B
:104220000CF4564F3F1D3F68C7F301477F1C7D00CC
:10423000B4FBF5F7076002E0564F076000BF00BF10
:104240004E4F08373F6807F0F0010909534F7A5C79
:104250000768D7404760494F08373F6807F4E05187
:10426000890A4E4F7A5C4768D7408760434F0837CA
:104270003F6807F46041490B484F7A5C4768D74074
:10428000C760F0BD002100F44072B2F5407F0AD152
:104290003A4A0832116821F4F811414A02401143A8
:1042A000364A08321160354A70321268C0F30B0387
:1042B0001A43324B70331A607047354944390860ED
:1042C0007047334940390860704736490860704785
:1042D00001460020294A8C32106820F01F004A1E37
:1042E0001043264A8C321060704701460020234A52
:1042F0008C32106820F4F8504A1E40EA02201F4A0F
:104300008C3210607047014600201C4A8C321068C5
:1043100020F4401008431060704701460020174AFF
:104320008C32106820F4400008431060704701464A
:104330000020124A8C32106820F44030084310608C
:10434000704719490860704739B10C4A3032126819
:1043500002430A4B30331A6006E0084A30321268D2
:104360008243064B30331A607047F9B1034A343246
:1043700012680243014B34331A601CE000380240DB
:10438000FFFFF6EA10300024003000200000474212
:10439000800E47420024F40000127A0083010020BE
:1043A000FFFCFF0F5C014742E01147428F4A126851
:1043B00082438E4B1A60704739B18C4A121D1268C5
:1043C00002438A4B1B1D1A6006E0884A121D1268C0
:1043D0008243864B1B1D1A60704739B1834A0C32E9
:1043E00012680243814B0C331A6006E07F4A0C329C
:1043F000126882437D4B0C331A60704739B17B4A97
:10440000103212680243794B10331A6006E0774A83
:10441000103212688243754B10331A60704739B1FD
:10442000724A243A12680243704B243B1A6006E039
:104430006E4A243A126882436C4B243B1A607047E0
:1044400039B16A4A203A12680243684B203B1A602D
:1044500006E0664A203A12688243644B203B1A60A9
:10446000704739B1614A1C3A126802435F4B1C3BEA
:104470001A6006E05D4A1C3A126882435B4B1C3BA3
:104480001A60704739B1594A143A12680243574BBF
:10449000143B1A6006E0554A143A12688243534BA3
:1044A000143B1A60704739B1504A103A12680243FF
:1044B0004E4B103B1A6006E04C4A103A1268824399
:1044C0004A4B103B1A60704739B1484A1C32126897
:1044D0000243464B1C331A6006E0444A1C32126801
:1044E0008243424B1C331A60704739B13F4A203235
:1044F000126802433D4B20331A6006E03B4A2032EB
:1045000012688243394B20331A60704739B1374AF9
:10451000243212680243354B24331A6006E0334AD2
:10452000243212688243314B24331A60704739B108
:104530002E4A2C32126802432C4B2C331A6006E0B0
:104540002A4A2C3212688243284B2C331A60704757
:1045500039B1264A303212680243244B30331A6094
:1045600006E0224A303212688243204B30331A6010
:104570007047012808D11D493C31096841F0080104
:104580001A4A3C32116007E018493C31096821F0B1
:104590000801164A3C321160704739B1134A273A74
:1045A00012780243114B273B1A7006E00F4A273A54
:1045B000127882430D4B273B1A7070470B484030EE
:1045C000006840F08070094940310860704701463A
:1045D0000020064A283A12680A400AB1012000E089
:1045E000002070470149263908707047343802406E
:1045F00010B501218803FFF756FF00214FF48040DA
:10460000FFF751FF10BD1C49086070471B49086245
:10461000704730B500228B071C0F0F2303FA04F2FA
:10462000154B08338C1053F824309343124C083444
:104630008D1044F8253023468C1053F824308C0715
:10464000240F00FA04F423430B4C08348D1044F873
:10465000253030BD0949DC310860704708490860E1
:104660007047002004492031096801F4807109B1C4
:10467000012000E000207047003801400000274280
:104680000004274210B50446FE48844208D10121A7
:104690000846FFF708FF00210120FFF704FF9DE017
:1046A000B4F1804F08D101210846FFF7EBFE00214D
:1046B0000120FFF7E7FE91E0F348844208D1012191
:1046C0000220FFF7DFFE00210220FFF7DBFE85E07E
:1046D000EE48844208D101210420FFF7D3FE0021D7
:1046E0000420FFF7CFFE79E0E948844208D1012198
:1046F0000820FFF7C7FE00210820FFF7C3FE6DE08A
:10470000E448844208D101211020FFF7BBFE0021BC
:104710001020FFF7B7FE61E0DF48844208D1012195
:104720002020FFF7AFFE00212020FFF7ABFE55E071
:10473000DA48844208D101210220FFF7B4FE0021AB
:104740000220FFF7B0FE49E0D548844209D101219B
:104750000804FFF7A8FE00214FF48030FFF7A3FE06
:104760003CE0D048844209D101214804FFF79BFE78
:1047700000214FF40030FFF796FE2FE0CA48844234
:1047800009D101218804FFF78EFE00214FF480201B
:10479000FFF789FE22E0C548844208D1012140206C
:1047A000FFF770FE00214020FFF76CFE16E0C048C6
:1047B000844208D101218020FFF764FE002180207F
:1047C000FFF760FE0AE0BB48844207D10121801553
:1047D000FFF758FE0021A015FFF754FE10BD002280
:1047E0000288A84B98420ED0AC4B98420BD0B0F147
:1047F000804F08D0A44B984205D0A44B984202D0D9
:10480000A34B984204D14FF68F731A404B881A433A
:10481000A04B984207D0A04B984204D04FF6FF43DC
:104820001A400B891A4302804B68C3620B880385C8
:10483000944B984202D0994B984201D18B7A0386CF
:104840000123838270474FF0FF31416000210180D6
:1048500001814180817270470185828270470A46DA
:10486000002101884FF68F73194011430180704772
:1048700041627047C16270470146486A704701460D
:10488000088D704721B1028842F00202028004E0E4
:1048900002884FF6FD731A400280704721B10288EA
:1048A00042F00402028004E002884FF6FB731A40D3
:1048B0000280704721B1028842F08002028004E049
:1048C00002884FF67F731A400280704702884FF6C5
:1048D000F7731A40028002880A43028070470288F8
:1048E0004FF6FF431A40028002880A430280704755
:1048F00021B1028842F00102028004E002884FF6F2
:10490000FE731A400280704770B500240022002315
:10491000058C4FF6FE7635400584028C8388048B27
:104920004FF68F752C40B51E2C400D882C43751EFC
:104930002A408D892A434D882A43524DA84202D0ED
:10494000564DA84213D14FF6F7752A40CD892A4318
:104950004FF6FB752A408D882A434FF6FF652B40A2
:104960004FF6FF552B400D8A2B434D8A2B438380F6
:1049700004838D684563028470BD70B500240022F5
:104980000023058C4FF6EF7635400584028C838832
:10499000048B48F6FF752C404FF6FF452C400D88E0
:1049A0004FF6FF7606EA05252C434FF6DF752A40C1
:1049B0008D8906EA05152A434D8806EA05152A431E
:1049C000304DA84202D0354DA8421DD14FF67F751B
:1049D0002A40CD894FF6FF7606EA05152A434FF6A1
:1049E000BF752A408D8806EA05152A434FF6FF3524
:1049F0002B404FF2FF752B400D8A06EA85052B43AD
:104A00004D8A06EA85052B43838004838D68856380
:104A1000028470BD70B5002400220023058C4FF67F
:104A2000FF6635400584028C8388848B4FF68F7532
:104A30002C404FF6FC752C400D882C434FF6FF554B
:104A40002A408D894FF6FF7606EA05252A434D88D0
:104A500006EA05252A430B4DA84202D00F4DA84275
:104A600038D14FF2FF752A40CD894FF6FF7606EA1E
:104A700005252A434FF6FF352A408D8806EA05258D
:104A80002A4319E0000001400004004000080040F3
:104A9000000C0040001000400014004000040140E1
:104AA000004001400044014000480140001800401F
:104AB000001C0040002000404EF6FF752B404DF6D4
:104AC000FF752B400D8A06EA05152B434D8A06EA31
:104AD00005152B43838084838D68C563028470BD74
:104AE00070B5002200230024058C4EF6FF76354079
:104AF0000584038C8488828B48F6FF752A404FF624
:104B0000FF452A400D884FF6FF7606EA05252A4321
:104B10004DF6FF752B408D8906EA05352B434D88F0
:104B200006EA05352B43FE4DA84202D0FD4DA842B2
:104B300008D14BF6FF752C400D8A4FF6FF7606EA3A
:104B400085152C43848082838D680564038470BD41
:104B5000002101804180818081608181C181018249
:104B60004182704770B50346002000241846183073
:104B700001258D40ACB21D8CA5431D8409B10829C7
:104B80000AD100EB610005684FF68F76354005606D
:104B90000568154305600FE00D1FC5F34E05284459
:104BA000056848F6FF763540056005684FF6FF76E4
:104BB00006EA02263543056070BD41637047816394
:104BC0007047C1637047016470470A460021018B3A
:104BD0004FF68F7319401143018370470A46002135
:104BE000018B48F6FF7319404FF6FF7303EA022367
:104BF0001943018370470A460021818B4FF68F735A
:104C000019401143818370470A460021818B48F681
:104C1000FF7319404FF6FF7303EA022319438183A0
:104C200070470A460021018B4FF6F7731940114374
:104C3000018370470A460021018B4FF2FF73194030
:104C40004FF6FF7303EA02231943018370470A46B4
:104C50000021818B4FF6F773194011438183704710
:104C60000A460021818B4FF2FF7319404FF6FF7304
:104C700003EA02231943818370470A460021018B0E
:104C80004FF6FB7319401143018370470A46002118
:104C9000018B4FF6FF3319404FF6FF7303EA0223EF
:104CA0001943018370470A460021818B4FF6FB733D
:104CB00019401143818370470A460021818B4FF6CA
:104CC000FF3319404FF6FF7303EA02231943818330
:104CD00070470A460021018B4FF67F73194011433C
:104CE000018370470A460021018BC1F30E014FF684
:104CF000FF7303EA02231943018370470A46002128
:104D0000818B4FF67F7319401143818370470A46A8
:104D10000021818BC1F30E014FF6FF7303EA0223DA
:104D20001943818370470A460021018C4FF6FD73B9
:104D300019401143018470470A460021018C4FF647
:104D4000F77319401143018470470A460021018C12
:104D50004FF6DF7319404FF6FF7303EA021319434E
:104D6000018470470A460021018C4FF67F73194079
:104D70004FF6FF7303EA02131943018470470A4692
:104D80000021018C4FF6FF5319404FF6FF7303EAE1
:104D900002231943018470470A460021018C4FF217
:104DA000FF7319404FF6FF7303EA0223194301848E
:104DB00070470A460021018C4DF6FF7319404FF6EB
:104DC000FF7303EA023319430184704730B50023AF
:104DD00001248C40A3B2048C9C430484048C02FA0A
:104DE00001F5ADB22C43048430BD30B5002304245A
:104DF0008C40A3B2048C9C430484048C02FA01F519
:104E0000ADB22C43048430BD828B4FF2FF331A4085
:104E10008283828B4FF6FF7303EA01231A43828356
:104E20007047F0B50C461546002100220026078C7D
:104E30004EF6FF7C07EA0C070784818B028C4FF645
:104E4000FF7707EA043640F6FF4739404FF6FF7711
:104E500007EA052739434FF6FF7707EA0337394357
:104E600045F6FF773A4046F480573A4381830284FF
:104E7000F0BD828B4FF6F3731A408283828B0A4314
:104E800082837047F0B50C461546002100220026AB
:104E9000078C4FF6FF6C07EA0C070784818B028CA6
:104EA0004FF6FF7707EA04264FF60C7739404FF6A6
:104EB000FF7707EA03172F4339434FF2FF573A4072
:104EC00046F480773A4381830284F0BD028B4FF22F
:104ED000FF331A400283028B4FF6FF7303EA01236C
:104EE0001A4302837047F0B50C4615460021002294
:104EF0000026078C4FF6EF7C07EA0C070784018B2E
:104F0000028C4FF6FF7707EA041640F6FF47394058
:104F10004FF6FF7707EA033739434FF6FF7703E091
:104F2000000001400004014007EA052739434FF61D
:104F30005F773A4046F010073A4301830284F0BDA0
:104F4000028B4FF6F3731A400283028B0A430283EB
:104F50007047F0B50C46154600210022068C4FF62E
:104F6000FE773E400684018B028C4FF60C76314072
:104F70007E1C06EA03162E4331434FF6F576324087
:104F800044F00106324301830284F0BD70B505464A
:104F90000C46208850B92389A28861882846FFF7EB
:104FA000D8FFE1882846FFF7CBFF25E020880428BA
:104FB0000AD12389A28861882846FFF794FFE188F7
:104FC0002846FFF783FF17E0208808280AD12389A5
:104FD000A28861882846FFF755FFE1882846FFF739
:104FE00048FF09E02389A28861882846FFF719FF56
:104FF000E1882846FFF708FF70BD0021018041804D
:10500000012181800021C180018170472DE9F0419B
:1050100005460C4600260127608808B9022600E0F4
:105020000026A088012801D1022700E0012720885E
:10503000A0B92389A28861882846FFF78AFFE18802
:105040002846FFF77DFF23893A4631462846FFF779
:105050004AFFE1882846FFF739FF13E02389A28839
:1050600061882846FFF73FFFE1882846FFF72EFFBB
:1050700023893A4631462846FFF76BFFE1882846E8
:10508000FFF75EFFBDE8F0810146486B70470146BF
:10509000886B70470146C86B70470146086C7047C3
:1050A0000A884B881A438B881A43CB881A430B898A
:1050B0001A434B891A438B891A43A0F8442070473E
:1050C0000021018041808180C180018141818181F5
:1050D000704731B1B0F8442042F40042A0F84420B7
:1050E00005E0B0F84420C2F30E02A0F84420704757
:1050F00021B1828842F00402828004E082884FF667
:10510000FB731A408280704721B1828842F001020D
:10511000828004E082884FF6FE731A4082807047D6
:105120001AB183890B43838102E083898B43838196
:1051300070478182704702460020138A0B400BB1F2
:10514000012000E000207047CA430282704730B55A
:105150000246002000230024158A05EA01039589F0
:1051600005EA010413B10CB1012000E0002030BDBC
:10517000CA430282704741EA0203A0F848307047F0
:105180001AB183890B43838102E083898B43838136
:10519000704721B1828842F00802828004E0828850
:1051A0004FF6F7731A408280704701894FF6F87204
:1051B0001140018170470A46002101894FF68F7323
:1051C000194011430181704730B504460D46294608
:1051D0002046FFF7F0FF208940F00700208130BD16
:1051E0002DE9F04104460D4616461F46602D06D1B6
:1051F0003B46012231462046FFF775FE05E03B465F
:10520000012231462046FFF7A4FE29462046FFF73B
:10521000D2FF208940F007002081BDE8F08130B541
:105220000C4600210189C9B24FF6FF7505EA032536
:10523000154325432943018130BD2DE9F041054641
:105240000E4617469846002443463A4631462846BD
:10525000FFF7E5FF2C894FF6F870044044F007048F
:105260004FF68F70044044F070042C81BDE8F0814B
:10527000F0B504460D4616461F463B4632462946C3
:105280002046FFF7CCFF208940F480402081F0BD0C
:1052900082884FF68F731A40828082880A43828008
:1052A000704702894FF6F8731A40028102890A4357
:1052B0000281704702894FF67F731A40028102898A
:1052C0000A4302817047F0B50C4615461E46002180
:1052D000002200230189028B038C4FF6F8773940B6
:1052E00021434FF6FC473A4040F201173A434FF64C
:1052F000DD773B404FF6FF7707EA06172F433B4326
:10530000018102830384F0BD21B1828842F08002D2
:10531000828004E082884FF67F731A408280704753
:10532000A0F850107047000010B50446FA488442B7
:1053300008D101211020FFF7B6F800211020FFF757
:10534000B2F857E0F548844209D101214804FFF73B
:1053500099F800214FF40030FFF794F84AE0F04844
:10536000844209D101218804FFF78CF800214FF411
:105370008020FFF787F83DE0EA48844209D1012107
:10538000C804FFF77FF800214FF40020FFF77AF8F8
:1053900030E0E548844209D101210805FFF772F8A1
:1053A00000214FF48010FFF76DF823E0DF488442BE
:1053B00008D101212020FFF776F800212020FFF7F7
:1053C00072F817E0DA48844209D101218807FFF713
:1053D00059F800214FF08040FFF754F80AE0D54813
:1053E000844207D101214005FFF74CF800216005F8
:1053F000FFF748F810BD2DE9FF4705460E4600248B
:10540000A14600BFA046B08900B100BF2C8A24F499
:105410004054F08804432C82AC8941F20C608443F0
:10542000B08831890843718908430443AC81AC8A50
:1054300024F44074B0890443AC826846FEF7B3FE9E
:10544000B548854202D0B948854202D1DDF80C90BA
:1054500001E0DDF80890A88900F4004040B109EBB4
:10546000C90000EB091031684900B0FBF1F707E013
:1054700009EBC90000EB091031688900B0FBF1F7B6
:105480006420B7FBF0F004012009642101FB1078CF
:10549000A88900F4004040B1322000EBC800B0FB06
:1054A000F1F000F00700044308E0322000EB0810A0
:1054B0006421B0FBF1F000F00F0004432C81BDE843
:1054C000FF874FF41651016000218180C180018166
:1054D0000C21418100218181704710B502460020D6
:1054E000108A20F470600B884C8823438C882343F7
:1054F000CC8823431843108210BD002101804180D5
:105500008180C180704721B1828942F4005282813A
:1055100004E082894DF6FF731A4082817047028B46
:1055200002F47F420283028B0A430283704721B157
:10553000828942F40042828103E08289C2F30E0232
:105540008281704721B1828A42F40062828204E043
:10555000828A4FF2FF731A4082827047C1F30802B9
:105560008280704701468888C0F308007047028A2D
:105570004FF6F0731A400282028A0A430282704791
:1055800021B1828942F00202828104E082894FF6D1
:10559000FD731A408281704782894FF2FF731A406F
:1055A000828182890A4382817047028A4FF6DF73C3
:1055B0001A400282028A0A430282704721B1028A9B
:1055C00042F48042028204E0028A4BF6FF731A40E2
:1055D00002827047818941F001018181704721B1C8
:1055E000828A42F00802828204E0828A4FF6F773D0
:1055F0001A4082827047028BD2B20283028B42EA47
:1056000001220283704721B1828A42F02002828205
:1056100004E0828A4FF6DF731A408282704721B11C
:10562000828A42F01002828204E0828A4FF6EF738F
:105630001A4082827047828A4FF6FB731A40828238
:10564000828A0A438282704721B1828A42F0020232
:10565000828204E0828A4FF6FD731A40828270478C
:105660001AB1838A0B43838202E0838A8B4383824D
:105670007047F0B50346002400260025002040F6C0
:105680006A17B94200D100BF1846C1F3421401F0B5
:105690001F06012707FA06F5012C01D10C3004E0A2
:1056A000022C01D1103000E014301AB107682F43EA
:1056B000076002E00768AF430760F0BD02460020C4
:1056C000B1F5007F00D100BF13880B400BB1012062
:1056D00000E00020704701F40072B2F5007F00D1B5
:1056E00000BFCA430280704770B502460024002301
:1056F0000025002040F66A16B14200D100BFC1F378
:10570000421501F01F03012606FA03F3012D13D100
:105710009689334017E0000000100140004400402B
:1057200000480040004C0040005000400014014080
:1057300000780040007C0040022D02D1168A3340E0
:1057400001E0968A33400C12012606FA04F416880A
:10575000344013B10CB1012000E0002070BD10B541
:105760000022002340F66A14A14200D100BF0A12B1
:1057700001249440A3B2DC43048010BD01B581B084
:10578000002000900198009002E00098401E0090D8
:1057900000980028F9D10CBD10B501214806FEF78C
:1057A0003EFE00214FF00070FEF739FE10BD0121D2
:1057B0000160002141608160C16001614FF480415E
:1057C000416100218161C1614FF4006101620021EA
:1057D00041628162C162016341638163C1634021AF
:1057E00001642021416400218164C1640165416537
:1057F0008165C16501668021416600218166C166BF
:10580000016741678167C1674FF08061C0F8801010
:105810004910C0F884100021C0F888104FF400111E
:10582000C0F88C100021C0F89010C0F89410C0F897
:105830009810C0F89C10C0F8A0104FF00071C0F88C
:10584000A4104912C0F8A8108901C0F8AC10491280
:10585000C0F8B0100021C0F8B410C0F8B8107047FC
:1058600038B503460C46002100200090F848016935
:1058700001F01C014FF4784000EAC32001434FF4CB
:10588000F86000EA8410014341F0020141F0010197
:10589000EF484261016100BF0098401C0090EC4855
:1058A000016901F0010018B1EA4D0098A842F3D354
:1058B000E84D0098A84201D1002038BD0120FCE746
:1058C00018B502460B46002100200090E04801690F
:1058D00001F01C014FF4784000EAC22001434FF46C
:1058E000F86000EA8310014321F0020141F0010158
:1058F000D748016100BF0098401C0090D44801695E
:1059000001F0010020B14FF6FF740098A042F2D3DD
:105910004FF6FF740098A04201D1002018BDCC487A
:10592000406980B2FAE72DE9F04186B004460F469F
:105930004FF00008002500200590C74E0090C44895
:10594000056925F01C0501A8FEF72DFC029EC34841
:10595000864205D3C248864202D245F008051AE0C5
:10596000BF48864205D3BC48864202D245F00C05AA
:1059700011E0B948864203D3BA48864200D20AE011
:10598000B848864205D3B848864202D245F004059D
:1059900001E045F01005AE4805614FF400420021DA
:1059A0003846FFF75DFF18B9002006B0BDE8F0816A
:1059B000AE48FFF7E3FE2068002852D000BF0098F1
:1059C000401C009001213846FFF77AFF00F00400E8
:1059D00020B94FF6FF7100988842F0D34FF6FF715F
:1059E0000098884201D10020DFE7002000904FF4AA
:1059F000805200213846FFF733FF08B90020D4E772
:105A000000BF0098401C009001213846FFF758FF66
:105A100000F0200020B94FF6FF7100988842F0D3C3
:105A20004FF6FF710098884201D10020BDE70020A9
:105A300000901F213846FFF743FF804608F0100012
:105A400018B14FF40060206201E00020206208F0ED
:105A5000040010B10020606116E04FF480406061E6
:105A600012E0206AC0F3CF006169C1F34F0140EA40
:105A7000010200213846FFF7F3FE08B9002094E741
:105A80006FF07F40FFF77AFE71480568784805405F
:105A9000D4E901010843E1680843216908436169C9
:105AA0000843A1690843E1690843216A0843616A20
:105AB0000843A16A0843E16A0843216B0843616B0C
:105AC0000843054362480560D4E90E010843216C90
:105AD0000843616C0843A16C0843E16C0843216DE5
